{
  "contractName": "FamilyRecipe",
  "abi": [
    {
      "inputs": [],
      "stateMutability": "nonpayable",
      "type": "constructor"
    },
    {
      "anonymous": false,
      "inputs": [
        {
          "indexed": true,
          "internalType": "address",
          "name": "owner",
          "type": "address"
        },
        {
          "indexed": true,
          "internalType": "address",
          "name": "approved",
          "type": "address"
        },
        {
          "indexed": true,
          "internalType": "uint256",
          "name": "tokenId",
          "type": "uint256"
        }
      ],
      "name": "Approval",
      "type": "event"
    },
    {
      "anonymous": false,
      "inputs": [
        {
          "indexed": true,
          "internalType": "address",
          "name": "owner",
          "type": "address"
        },
        {
          "indexed": true,
          "internalType": "address",
          "name": "operator",
          "type": "address"
        },
        {
          "indexed": false,
          "internalType": "bool",
          "name": "approved",
          "type": "bool"
        }
      ],
      "name": "ApprovalForAll",
      "type": "event"
    },
    {
      "anonymous": false,
      "inputs": [
        {
          "indexed": true,
          "internalType": "address",
          "name": "from",
          "type": "address"
        },
        {
          "indexed": true,
          "internalType": "address",
          "name": "to",
          "type": "address"
        },
        {
          "indexed": true,
          "internalType": "uint256",
          "name": "tokenId",
          "type": "uint256"
        }
      ],
      "name": "Transfer",
      "type": "event"
    },
    {
      "inputs": [
        {
          "internalType": "address",
          "name": "to",
          "type": "address"
        },
        {
          "internalType": "uint256",
          "name": "tokenId",
          "type": "uint256"
        }
      ],
      "name": "approve",
      "outputs": [],
      "stateMutability": "nonpayable",
      "type": "function"
    },
    {
      "inputs": [
        {
          "internalType": "address",
          "name": "owner",
          "type": "address"
        }
      ],
      "name": "balanceOf",
      "outputs": [
        {
          "internalType": "uint256",
          "name": "",
          "type": "uint256"
        }
      ],
      "stateMutability": "view",
      "type": "function",
      "constant": true
    },
    {
      "inputs": [
        {
          "internalType": "uint256",
          "name": "tokenId",
          "type": "uint256"
        }
      ],
      "name": "getApproved",
      "outputs": [
        {
          "internalType": "address",
          "name": "",
          "type": "address"
        }
      ],
      "stateMutability": "view",
      "type": "function",
      "constant": true
    },
    {
      "inputs": [
        {
          "internalType": "string",
          "name": "",
          "type": "string"
        }
      ],
      "name": "hashes",
      "outputs": [
        {
          "internalType": "uint8",
          "name": "",
          "type": "uint8"
        }
      ],
      "stateMutability": "view",
      "type": "function",
      "constant": true
    },
    {
      "inputs": [
        {
          "internalType": "address",
          "name": "owner",
          "type": "address"
        },
        {
          "internalType": "address",
          "name": "operator",
          "type": "address"
        }
      ],
      "name": "isApprovedForAll",
      "outputs": [
        {
          "internalType": "bool",
          "name": "",
          "type": "bool"
        }
      ],
      "stateMutability": "view",
      "type": "function",
      "constant": true
    },
    {
      "inputs": [],
      "name": "name",
      "outputs": [
        {
          "internalType": "string",
          "name": "",
          "type": "string"
        }
      ],
      "stateMutability": "view",
      "type": "function",
      "constant": true
    },
    {
      "inputs": [
        {
          "internalType": "uint256",
          "name": "tokenId",
          "type": "uint256"
        }
      ],
      "name": "ownerOf",
      "outputs": [
        {
          "internalType": "address",
          "name": "",
          "type": "address"
        }
      ],
      "stateMutability": "view",
      "type": "function",
      "constant": true
    },
    {
      "inputs": [
        {
          "internalType": "address",
          "name": "from",
          "type": "address"
        },
        {
          "internalType": "address",
          "name": "to",
          "type": "address"
        },
        {
          "internalType": "uint256",
          "name": "tokenId",
          "type": "uint256"
        }
      ],
      "name": "safeTransferFrom",
      "outputs": [],
      "stateMutability": "nonpayable",
      "type": "function"
    },
    {
      "inputs": [
        {
          "internalType": "address",
          "name": "from",
          "type": "address"
        },
        {
          "internalType": "address",
          "name": "to",
          "type": "address"
        },
        {
          "internalType": "uint256",
          "name": "tokenId",
          "type": "uint256"
        },
        {
          "internalType": "bytes",
          "name": "_data",
          "type": "bytes"
        }
      ],
      "name": "safeTransferFrom",
      "outputs": [],
      "stateMutability": "nonpayable",
      "type": "function"
    },
    {
      "inputs": [
        {
          "internalType": "address",
          "name": "operator",
          "type": "address"
        },
        {
          "internalType": "bool",
          "name": "approved",
          "type": "bool"
        }
      ],
      "name": "setApprovalForAll",
      "outputs": [],
      "stateMutability": "nonpayable",
      "type": "function"
    },
    {
      "inputs": [
        {
          "internalType": "bytes4",
          "name": "interfaceId",
          "type": "bytes4"
        }
      ],
      "name": "supportsInterface",
      "outputs": [
        {
          "internalType": "bool",
          "name": "",
          "type": "bool"
        }
      ],
      "stateMutability": "view",
      "type": "function",
      "constant": true
    },
    {
      "inputs": [],
      "name": "symbol",
      "outputs": [
        {
          "internalType": "string",
          "name": "",
          "type": "string"
        }
      ],
      "stateMutability": "view",
      "type": "function",
      "constant": true
    },
    {
      "inputs": [
        {
          "internalType": "uint256",
          "name": "tokenId",
          "type": "uint256"
        }
      ],
      "name": "tokenURI",
      "outputs": [
        {
          "internalType": "string",
          "name": "",
          "type": "string"
        }
      ],
      "stateMutability": "view",
      "type": "function",
      "constant": true
    },
    {
      "inputs": [
        {
          "internalType": "address",
          "name": "from",
          "type": "address"
        },
        {
          "internalType": "address",
          "name": "to",
          "type": "address"
        },
        {
          "internalType": "uint256",
          "name": "tokenId",
          "type": "uint256"
        }
      ],
      "name": "transferFrom",
      "outputs": [],
      "stateMutability": "nonpayable",
      "type": "function"
    },
    {
      "inputs": [
        {
          "internalType": "address",
          "name": "recipient",
          "type": "address"
        },
        {
          "internalType": "string",
          "name": "hash",
          "type": "string"
        }
      ],
      "name": "mintREC",
      "outputs": [
        {
          "internalType": "uint256",
          "name": "",
          "type": "uint256"
        }
      ],
      "stateMutability": "nonpayable",
      "type": "function"
    }
  ],
  "bytecode": "0x60806040523480156200001157600080fd5b506040518060400160405280600c81526020017f46616d696c7952656369706500000000000000000000000000000000000000008152506040518060400160405280600381526020017f5245430000000000000000000000000000000000000000000000000000000000815250816000908051906020019062000096929190620000b8565b508060019080519060200190620000af929190620000b8565b505050620001cd565b828054620000c69062000168565b90600052602060002090601f016020900481019282620000ea576000855562000136565b82601f106200010557805160ff191683800117855562000136565b8280016001018555821562000136579182015b828111156200013557825182559160200191906001019062000118565b5b50905062000145919062000149565b5090565b5b80821115620001645760008160009055506001016200014a565b5090565b600060028204905060018216806200018157607f821691505b602082108114156200019857620001976200019e565b5b50919050565b7f4e487b7100000000000000000000000000000000000000000000000000000000600052602260045260246000fd5b61291a80620001dd6000396000f3fe608060405234801561001057600080fd5b50600436106100f55760003560e01c80636352211e11610097578063a22cb46511610066578063a22cb465146102aa578063b88d4fde146102c6578063c87b56dd146102e2578063e985e9c514610312576100f5565b80636352211e146101fc578063685e0dc71461022c57806370a082311461025c57806395d89b411461028c576100f5565b8063095ea7b3116100d3578063095ea7b31461017857806323b872dd1461019457806330691341146101b057806342842e0e146101e0576100f5565b806301ffc9a7146100fa57806306fdde031461012a578063081812fc14610148575b600080fd5b610114600480360381019061010f9190611acb565b610342565b604051610121919061226a565b60405180910390f35b610132610424565b60405161013f9190612285565b60405180910390f35b610162600480360381019061015d9190611b5e565b6104b6565b60405161016f9190612203565b60405180910390f35b610192600480360381019061018d9190611a8f565b61053b565b005b6101ae60048036038101906101a99190611935565b610653565b005b6101ca60048036038101906101c59190611a3b565b6106b3565b6040516101d79190612487565b60405180910390f35b6101fa60048036038101906101f59190611935565b610795565b005b61021660048036038101906102119190611b5e565b6107b5565b6040516102239190612203565b60405180910390f35b61024660048036038101906102419190611b1d565b610867565b60405161025391906124a2565b60405180910390f35b610276600480360381019061027191906118d0565b61089d565b6040516102839190612487565b60405180910390f35b610294610955565b6040516102a19190612285565b60405180910390f35b6102c460048036038101906102bf91906119ff565b6109e7565b005b6102e060048036038101906102db9190611984565b610b68565b005b6102fc60048036038101906102f79190611b5e565b610bca565b6040516103099190612285565b60405180910390f35b61032c600480360381019061032791906118f9565b610c71565b604051610339919061226a565b60405180910390f35b60007f80ac58cd000000000000000000000000000000000000000000000000000000007bffffffffffffffffffffffffffffffffffffffffffffffffffffffff1916827bffffffffffffffffffffffffffffffffffffffffffffffffffffffff1916148061040d57507f5b5e139f000000000000000000000000000000000000000000000000000000007bffffffffffffffffffffffffffffffffffffffffffffffffffffffff1916827bffffffffffffffffffffffffffffffffffffffffffffffffffffffff1916145b8061041d575061041c82610d05565b5b9050919050565b6060600080546104339061270f565b80601f016020809104026020016040519081016040528092919081815260200182805461045f9061270f565b80156104ac5780601f10610481576101008083540402835291602001916104ac565b820191906000526020600020905b81548152906001019060200180831161048f57829003601f168201915b5050505050905090565b60006104c182610d6f565b610500576040517f08c379a00000000000000000000000000000000000000000000000000000000081526004016104f7906123e7565b60405180910390fd5b6004600083815260200190815260200160002060009054906101000a900473ffffffffffffffffffffffffffffffffffffffff169050919050565b6000610546826107b5565b90508073ffffffffffffffffffffffffffffffffffffffff168373ffffffffffffffffffffffffffffffffffffffff1614156105b7576040517f08c379a00000000000000000000000000000000000000000000000000000000081526004016105ae90612447565b60405180910390fd5b8073ffffffffffffffffffffffffffffffffffffffff166105d6610ddb565b73ffffffffffffffffffffffffffffffffffffffff1614806106055750610604816105ff610ddb565b610c71565b5b610644576040517f08c379a000000000000000000000000000000000000000000000000000000000815260040161063b90612347565b60405180910390fd5b61064e8383610de3565b505050565b61066461065e610ddb565b82610e9c565b6106a3576040517f08c379a000000000000000000000000000000000000000000000000000000000815260040161069a90612467565b60405180910390fd5b6106ae838383610f7a565b505050565b600060016007836040516106c791906121c8565b908152602001604051809103902060009054906101000a900460ff1660ff161415610727576040517f08c379a000000000000000000000000000000000000000000000000000000000815260040161071e906123a7565b60405180910390fd5b600160078360405161073991906121c8565b908152602001604051809103902060006101000a81548160ff021916908360ff16021790555061076960066111d6565b600061077560066111ec565b905061078184826111fa565b61078a81610bca565b508091505092915050565b6107b083838360405180602001604052806000815250610b68565b505050565b6000806002600084815260200190815260200160002060009054906101000a900473ffffffffffffffffffffffffffffffffffffffff169050600073ffffffffffffffffffffffffffffffffffffffff168173ffffffffffffffffffffffffffffffffffffffff16141561085e576040517f08c379a000000000000000000000000000000000000000000000000000000000815260040161085590612387565b60405180910390fd5b80915050919050565b6007818051602081018201805184825260208301602085012081835280955050505050506000915054906101000a900460ff1681565b60008073ffffffffffffffffffffffffffffffffffffffff168273ffffffffffffffffffffffffffffffffffffffff16141561090e576040517f08c379a000000000000000000000000000000000000000000000000000000000815260040161090590612367565b60405180910390fd5b600360008373ffffffffffffffffffffffffffffffffffffffff1673ffffffffffffffffffffffffffffffffffffffff168152602001908152602001600020549050919050565b6060600180546109649061270f565b80601f01602080910402602001604051908101604052809291908181526020018280546109909061270f565b80156109dd5780601f106109b2576101008083540402835291602001916109dd565b820191906000526020600020905b8154815290600101906020018083116109c057829003601f168201915b5050505050905090565b6109ef610ddb565b73ffffffffffffffffffffffffffffffffffffffff168273ffffffffffffffffffffffffffffffffffffffff161415610a5d576040517f08c379a0000000000000000000000000000000000000000000000000000000008152600401610a5490612307565b60405180910390fd5b8060056000610a6a610ddb565b73ffffffffffffffffffffffffffffffffffffffff1673ffffffffffffffffffffffffffffffffffffffff16815260200190815260200160002060008473ffffffffffffffffffffffffffffffffffffffff1673ffffffffffffffffffffffffffffffffffffffff16815260200190815260200160002060006101000a81548160ff0219169083151502179055508173ffffffffffffffffffffffffffffffffffffffff16610b17610ddb565b73ffffffffffffffffffffffffffffffffffffffff167f17307eab39ab6107e8899845ad3d59bd9653f200f220920489ca2b5937696c3183604051610b5c919061226a565b60405180910390a35050565b610b79610b73610ddb565b83610e9c565b610bb8576040517f08c379a0000000000000000000000000000000000000000000000000000000008152600401610baf90612467565b60405180910390fd5b610bc4848484846113c8565b50505050565b6060610bd582610d6f565b610c14576040517f08c379a0000000000000000000000000000000000000000000000000000000008152600401610c0b90612427565b60405180910390fd5b6000610c1e611424565b90506000815111610c3e5760405180602001604052806000815250610c69565b80610c488461143b565b604051602001610c599291906121df565b6040516020818303038152906040525b915050919050565b6000600560008473ffffffffffffffffffffffffffffffffffffffff1673ffffffffffffffffffffffffffffffffffffffff16815260200190815260200160002060008373ffffffffffffffffffffffffffffffffffffffff1673ffffffffffffffffffffffffffffffffffffffff16815260200190815260200160002060009054906101000a900460ff16905092915050565b60007f01ffc9a7000000000000000000000000000000000000000000000000000000007bffffffffffffffffffffffffffffffffffffffffffffffffffffffff1916827bffffffffffffffffffffffffffffffffffffffffffffffffffffffff1916149050919050565b60008073ffffffffffffffffffffffffffffffffffffffff166002600084815260200190815260200160002060009054906101000a900473ffffffffffffffffffffffffffffffffffffffff1673ffffffffffffffffffffffffffffffffffffffff1614159050919050565b600033905090565b816004600083815260200190815260200160002060006101000a81548173ffffffffffffffffffffffffffffffffffffffff021916908373ffffffffffffffffffffffffffffffffffffffff160217905550808273ffffffffffffffffffffffffffffffffffffffff16610e56836107b5565b73ffffffffffffffffffffffffffffffffffffffff167f8c5be1e5ebec7d5bd14f71427d1e84f3dd0314c0f7b2291e5b200ac8c7c3b92560405160405180910390a45050565b6000610ea782610d6f565b610ee6576040517f08c379a0000000000000000000000000000000000000000000000000000000008152600401610edd90612327565b60405180910390fd5b6000610ef1836107b5565b90508073ffffffffffffffffffffffffffffffffffffffff168473ffffffffffffffffffffffffffffffffffffffff161480610f6057508373ffffffffffffffffffffffffffffffffffffffff16610f48846104b6565b73ffffffffffffffffffffffffffffffffffffffff16145b80610f715750610f708185610c71565b5b91505092915050565b8273ffffffffffffffffffffffffffffffffffffffff16610f9a826107b5565b73ffffffffffffffffffffffffffffffffffffffff1614610ff0576040517f08c379a0000000000000000000000000000000000000000000000000000000008152600401610fe790612407565b60405180910390fd5b600073ffffffffffffffffffffffffffffffffffffffff168273ffffffffffffffffffffffffffffffffffffffff161415611060576040517f08c379a0000000000000000000000000000000000000000000000000000000008152600401611057906122e7565b60405180910390fd5b61106b8383836115e8565b611076600082610de3565b6001600360008573ffffffffffffffffffffffffffffffffffffffff1673ffffffffffffffffffffffffffffffffffffffff16815260200190815260200160002060008282546110c69190612618565b925050819055506001600360008473ffffffffffffffffffffffffffffffffffffffff1673ffffffffffffffffffffffffffffffffffffffff168152602001908152602001600020600082825461111d9190612591565b92505081905550816002600083815260200190815260200160002060006101000a81548173ffffffffffffffffffffffffffffffffffffffff021916908373ffffffffffffffffffffffffffffffffffffffff160217905550808273ffffffffffffffffffffffffffffffffffffffff168473ffffffffffffffffffffffffffffffffffffffff167fddf252ad1be2c89b69c2b068fc378daa952ba7f163c4a11628f55a4df523b3ef60405160405180910390a4505050565b6001816000016000828254019250508190555050565b600081600001549050919050565b600073ffffffffffffffffffffffffffffffffffffffff168273ffffffffffffffffffffffffffffffffffffffff16141561126a576040517f08c379a0000000000000000000000000000000000000000000000000000000008152600401611261906123c7565b60405180910390fd5b61127381610d6f565b156112b3576040517f08c379a00000000000000000000000000000000000000000000000000000000081526004016112aa906122c7565b60405180910390fd5b6112bf600083836115e8565b6001600360008473ffffffffffffffffffffffffffffffffffffffff1673ffffffffffffffffffffffffffffffffffffffff168152602001908152602001600020600082825461130f9190612591565b92505081905550816002600083815260200190815260200160002060006101000a81548173ffffffffffffffffffffffffffffffffffffffff021916908373ffffffffffffffffffffffffffffffffffffffff160217905550808273ffffffffffffffffffffffffffffffffffffffff16600073ffffffffffffffffffffffffffffffffffffffff167fddf252ad1be2c89b69c2b068fc378daa952ba7f163c4a11628f55a4df523b3ef60405160405180910390a45050565b6113d3848484610f7a565b6113df848484846115ed565b61141e576040517f08c379a0000000000000000000000000000000000000000000000000000000008152600401611415906122a7565b60405180910390fd5b50505050565b606060405180602001604052806000815250905090565b60606000821415611483576040518060400160405280600181526020017f300000000000000000000000000000000000000000000000000000000000000081525090506115e3565b600082905060005b600082146114b557808061149e90612741565b915050600a826114ae91906125e7565b915061148b565b60008167ffffffffffffffff8111156114f7577f4e487b7100000000000000000000000000000000000000000000000000000000600052604160045260246000fd5b6040519080825280601f01601f1916602001820160405280156115295781602001600182028036833780820191505090505b5090505b600085146115dc576001826115429190612618565b9150600a85611551919061278a565b603061155d9190612591565b60f81b818381518110611599577f4e487b7100000000000000000000000000000000000000000000000000000000600052603260045260246000fd5b60200101907effffffffffffffffffffffffffffffffffffffffffffffffffffffffffffff1916908160001a905350600a856115d591906125e7565b945061152d565b8093505050505b919050565b505050565b600061160e8473ffffffffffffffffffffffffffffffffffffffff16611784565b15611777578373ffffffffffffffffffffffffffffffffffffffff1663150b7a02611637610ddb565b8786866040518563ffffffff1660e01b8152600401611659949392919061221e565b602060405180830381600087803b15801561167357600080fd5b505af19250505080156116a457506040513d601f19601f820116820180604052508101906116a19190611af4565b60015b611727573d80600081146116d4576040519150601f19603f3d011682016040523d82523d6000602084013e6116d9565b606091505b5060008151141561171f576040517f08c379a0000000000000000000000000000000000000000000000000000000008152600401611716906122a7565b60405180910390fd5b805181602001fd5b63150b7a0260e01b7bffffffffffffffffffffffffffffffffffffffffffffffffffffffff1916817bffffffffffffffffffffffffffffffffffffffffffffffffffffffff19161491505061177c565b600190505b949350505050565b600080823b905060008111915050919050565b60006117aa6117a5846124ee565b6124bd565b9050828152602081018484840111156117c257600080fd5b6117cd8482856126cd565b509392505050565b60006117e86117e38461251e565b6124bd565b90508281526020810184848401111561180057600080fd5b61180b8482856126cd565b509392505050565b60008135905061182281612888565b92915050565b6000813590506118378161289f565b92915050565b60008135905061184c816128b6565b92915050565b600081519050611861816128b6565b92915050565b600082601f83011261187857600080fd5b8135611888848260208601611797565b91505092915050565b600082601f8301126118a257600080fd5b81356118b28482602086016117d5565b91505092915050565b6000813590506118ca816128cd565b92915050565b6000602082840312156118e257600080fd5b60006118f084828501611813565b91505092915050565b6000806040838503121561190c57600080fd5b600061191a85828601611813565b925050602061192b85828601611813565b9150509250929050565b60008060006060848603121561194a57600080fd5b600061195886828701611813565b935050602061196986828701611813565b925050604061197a868287016118bb565b9150509250925092565b6000806000806080858703121561199a57600080fd5b60006119a887828801611813565b94505060206119b987828801611813565b93505060406119ca878288016118bb565b925050606085013567ffffffffffffffff8111156119e757600080fd5b6119f387828801611867565b91505092959194509250565b60008060408385031215611a1257600080fd5b6000611a2085828601611813565b9250506020611a3185828601611828565b9150509250929050565b60008060408385031215611a4e57600080fd5b6000611a5c85828601611813565b925050602083013567ffffffffffffffff811115611a7957600080fd5b611a8585828601611891565b9150509250929050565b60008060408385031215611aa257600080fd5b6000611ab085828601611813565b9250506020611ac1858286016118bb565b9150509250929050565b600060208284031215611add57600080fd5b6000611aeb8482850161183d565b91505092915050565b600060208284031215611b0657600080fd5b6000611b1484828501611852565b91505092915050565b600060208284031215611b2f57600080fd5b600082013567ffffffffffffffff811115611b4957600080fd5b611b5584828501611891565b91505092915050565b600060208284031215611b7057600080fd5b6000611b7e848285016118bb565b91505092915050565b611b908161264c565b82525050565b611b9f8161265e565b82525050565b6000611bb08261254e565b611bba8185612564565b9350611bca8185602086016126dc565b611bd381612877565b840191505092915050565b6000611be982612559565b611bf38185612575565b9350611c038185602086016126dc565b611c0c81612877565b840191505092915050565b6000611c2282612559565b611c2c8185612586565b9350611c3c8185602086016126dc565b80840191505092915050565b6000611c55603283612575565b91507f4552433732313a207472616e7366657220746f206e6f6e20455243373231526560008301527f63656976657220696d706c656d656e74657200000000000000000000000000006020830152604082019050919050565b6000611cbb601c83612575565b91507f4552433732313a20746f6b656e20616c7265616479206d696e746564000000006000830152602082019050919050565b6000611cfb602483612575565b91507f4552433732313a207472616e7366657220746f20746865207a65726f2061646460008301527f72657373000000000000000000000000000000000000000000000000000000006020830152604082019050919050565b6000611d61601983612575565b91507f4552433732313a20617070726f766520746f2063616c6c6572000000000000006000830152602082019050919050565b6000611da1602c83612575565b91507f4552433732313a206f70657261746f7220717565727920666f72206e6f6e657860008301527f697374656e7420746f6b656e00000000000000000000000000000000000000006020830152604082019050919050565b6000611e07603883612575565b91507f4552433732313a20617070726f76652063616c6c6572206973206e6f74206f7760008301527f6e6572206e6f7220617070726f76656420666f7220616c6c00000000000000006020830152604082019050919050565b6000611e6d602a83612575565b91507f4552433732313a2062616c616e636520717565727920666f7220746865207a6560008301527f726f2061646472657373000000000000000000000000000000000000000000006020830152604082019050919050565b6000611ed3602983612575565b91507f4552433732313a206f776e657220717565727920666f72206e6f6e657869737460008301527f656e7420746f6b656e00000000000000000000000000000000000000000000006020830152604082019050919050565b6000611f39601b83612575565b91507f486173682068617320616c7265616479206265656e20757365642100000000006000830152602082019050919050565b6000611f79602083612575565b91507f4552433732313a206d696e7420746f20746865207a65726f20616464726573736000830152602082019050919050565b6000611fb9602c83612575565b91507f4552433732313a20617070726f76656420717565727920666f72206e6f6e657860008301527f697374656e7420746f6b656e00000000000000000000000000000000000000006020830152604082019050919050565b600061201f602983612575565b91507f4552433732313a207472616e73666572206f6620746f6b656e2074686174206960008301527f73206e6f74206f776e00000000000000000000000000000000000000000000006020830152604082019050919050565b6000612085602f83612575565b91507f4552433732314d657461646174613a2055524920717565727920666f72206e6f60008301527f6e6578697374656e7420746f6b656e00000000000000000000000000000000006020830152604082019050919050565b60006120eb602183612575565b91507f4552433732313a20617070726f76616c20746f2063757272656e74206f776e6560008301527f72000000000000000000000000000000000000000000000000000000000000006020830152604082019050919050565b6000612151603183612575565b91507f4552433732313a207472616e736665722063616c6c6572206973206e6f74206f60008301527f776e6572206e6f7220617070726f7665640000000000000000000000000000006020830152604082019050919050565b6121b3816126b6565b82525050565b6121c2816126c0565b82525050565b60006121d48284611c17565b915081905092915050565b60006121eb8285611c17565b91506121f78284611c17565b91508190509392505050565b60006020820190506122186000830184611b87565b92915050565b60006080820190506122336000830187611b87565b6122406020830186611b87565b61224d60408301856121aa565b818103606083015261225f8184611ba5565b905095945050505050565b600060208201905061227f6000830184611b96565b92915050565b6000602082019050818103600083015261229f8184611bde565b905092915050565b600060208201905081810360008301526122c081611c48565b9050919050565b600060208201905081810360008301526122e081611cae565b9050919050565b6000602082019050818103600083015261230081611cee565b9050919050565b6000602082019050818103600083015261232081611d54565b9050919050565b6000602082019050818103600083015261234081611d94565b9050919050565b6000602082019050818103600083015261236081611dfa565b9050919050565b6000602082019050818103600083015261238081611e60565b9050919050565b600060208201905081810360008301526123a081611ec6565b9050919050565b600060208201905081810360008301526123c081611f2c565b9050919050565b600060208201905081810360008301526123e081611f6c565b9050919050565b6000602082019050818103600083015261240081611fac565b9050919050565b6000602082019050818103600083015261242081612012565b9050919050565b6000602082019050818103600083015261244081612078565b9050919050565b60006020820190508181036000830152612460816120de565b9050919050565b6000602082019050818103600083015261248081612144565b9050919050565b600060208201905061249c60008301846121aa565b92915050565b60006020820190506124b760008301846121b9565b92915050565b6000604051905081810181811067ffffffffffffffff821117156124e4576124e3612848565b5b8060405250919050565b600067ffffffffffffffff82111561250957612508612848565b5b601f19601f8301169050602081019050919050565b600067ffffffffffffffff82111561253957612538612848565b5b601f19601f8301169050602081019050919050565b600081519050919050565b600081519050919050565b600082825260208201905092915050565b600082825260208201905092915050565b600081905092915050565b600061259c826126b6565b91506125a7836126b6565b9250827fffffffffffffffffffffffffffffffffffffffffffffffffffffffffffffffff038211156125dc576125db6127bb565b5b828201905092915050565b60006125f2826126b6565b91506125fd836126b6565b92508261260d5761260c6127ea565b5b828204905092915050565b6000612623826126b6565b915061262e836126b6565b925082821015612641576126406127bb565b5b828203905092915050565b600061265782612696565b9050919050565b60008115159050919050565b60007fffffffff0000000000000000000000000000000000000000000000000000000082169050919050565b600073ffffffffffffffffffffffffffffffffffffffff82169050919050565b6000819050919050565b600060ff82169050919050565b82818337600083830152505050565b60005b838110156126fa5780820151818401526020810190506126df565b83811115612709576000848401525b50505050565b6000600282049050600182168061272757607f821691505b6020821081141561273b5761273a612819565b5b50919050565b600061274c826126b6565b91507fffffffffffffffffffffffffffffffffffffffffffffffffffffffffffffffff82141561277f5761277e6127bb565b5b600182019050919050565b6000612795826126b6565b91506127a0836126b6565b9250826127b0576127af6127ea565b5b828206905092915050565b7f4e487b7100000000000000000000000000000000000000000000000000000000600052601160045260246000fd5b7f4e487b7100000000000000000000000000000000000000000000000000000000600052601260045260246000fd5b7f4e487b7100000000000000000000000000000000000000000000000000000000600052602260045260246000fd5b7f4e487b7100000000000000000000000000000000000000000000000000000000600052604160045260246000fd5b6000601f19601f8301169050919050565b6128918161264c565b811461289c57600080fd5b50565b6128a88161265e565b81146128b357600080fd5b50565b6128bf8161266a565b81146128ca57600080fd5b50565b6128d6816126b6565b81146128e157600080fd5b5056fea26469706673582212201f9c7b36ce02b3ab3cdcae194b4d61f7be268e4092a0dd4657131347f008ef4f64736f6c63430008000033",
  "immutableReferences": {},
  "source": "// SPDX-License-Identifier: MIT\npragma solidity >=0.4.22 <0.9.0;\n\nimport \"@openzeppelin/contracts/token/ERC721/ERC721.sol\";\nimport \"@openzeppelin/contracts/utils/Counters.sol\";\n\ncontract FamilyRecipe is ERC721{\n  using Counters for Counters.Counter;\n  Counters.Counter private _counter;\n  mapping(string => uint8) public hashes;\n  \n  constructor() ERC721('FamilyRecipe', 'REC') {\n  }\n  \n  function mintREC(address recipient, string memory hash) public returns(uint256) {\n    require (\n      hashes[hash] != 1,\n      \"Hash has already been used!\"\n    );\n\n    hashes[hash] = 1;\n    _counter.increment();\n    uint256 newRECId = _counter.current();\n    _mint(recipient, newRECId);\n    tokenURI(newRECId);\n    return newRECId;\n  }\n}",
  "sourcePath": "/home/pauladayn/erc721-token-recipe/contracts/FamilyRecipe.sol",
  "compiler": {
    "name": "solc",
    "version": "0.8.0+commit.c7dfd78e.Emscripten.clang"
  },
  "schemaVersion": "3.3.4",
  "updatedAt": "2021-04-07T02:59:11.855Z",
  "networkType": "ethereum",
  "devdoc": {
    "kind": "dev",
    "methods": {
      "approve(address,uint256)": {
        "details": "See {IERC721-approve}."
      },
      "balanceOf(address)": {
        "details": "See {IERC721-balanceOf}."
      },
      "getApproved(uint256)": {
        "details": "See {IERC721-getApproved}."
      },
      "isApprovedForAll(address,address)": {
        "details": "See {IERC721-isApprovedForAll}."
      },
      "name()": {
        "details": "See {IERC721Metadata-name}."
      },
      "ownerOf(uint256)": {
        "details": "See {IERC721-ownerOf}."
      },
      "safeTransferFrom(address,address,uint256)": {
        "details": "See {IERC721-safeTransferFrom}."
      },
      "safeTransferFrom(address,address,uint256,bytes)": {
        "details": "See {IERC721-safeTransferFrom}."
      },
      "setApprovalForAll(address,bool)": {
        "details": "See {IERC721-setApprovalForAll}."
      },
      "supportsInterface(bytes4)": {
        "details": "See {IERC165-supportsInterface}."
      },
      "symbol()": {
        "details": "See {IERC721Metadata-symbol}."
      },
      "tokenURI(uint256)": {
        "details": "See {IERC721Metadata-tokenURI}."
      },
      "transferFrom(address,address,uint256)": {
        "details": "See {IERC721-transferFrom}."
      }
    },
    "version": 1
  },
  "userdoc": {
    "kind": "user",
    "methods": {},
    "version": 1
  }
}